:100000000C945D000C9485000C9485000C94850084
:100010000C9485000C9485000C9485000C9485004C
:100020000C9485000C9485000C9485000C94F502CA
:100030000C9485000C9485000C9485000C9485002C
:100040000C94AB020C9485000C9479020C9453022E
:100050000C9485000C9485000C9485000C9485000C
:100060000C9485000C94850000000008000201003B
:100070000003040700000000000000000000000072
:10008000250028002B0000000000240027002A0083
:10009000040404040404040402020202020203032E
:1000A0000303030301020408102040800102040836
:1000B0001020010204081020B10311241FBECFEF4D
:1000C000D8E0DEBFCDBF11E0A0E0B1E0E2E2FDE0AC
:1000D00002C005900D92AE32B107D9F722E0AEE230
:1000E000B1E001C01D92A130B207E1F710E0CDE50B
:1000F000D0E004C02197FE010E948906CC35D107CB
:10010000C9F70E940E040C948F060C940000AF9265
:10011000BF92CF92DF92EF92FF920F931F93CF93F4
:10012000DF936C017B018B01040F151FEB015E0156
:10013000AE18BF08C017D10759F06991D601ED91EB
:10014000FC910190F081E02DC6010995892B79F78A
:10015000C501DF91CF911F910F91FF90EF90DF903C
:10016000CF90BF90AF900895FC01538D448D252F03
:1001700030E0842F90E0821B930B541710F0CF9641
:10018000089501970895FC01918D828D981761F073
:10019000A28DAE0FBF2FB11D5D968C91928D9F5F8A
:1001A0009F73928F90E008958FEF9FEF0895FC0169
:1001B000918D828D981731F0828DE80FF11D858D1C
:1001C00090E008958FEF9FEF0895FC01918D228DAF
:1001D000892F90E0805C9F4F821B91098F73992734
:1001E00008958CE391E00E94E50021E0892B09F459
:1001F00020E0822F089580E090E0892B29F00E9472
:10020000F10081110C9400000895FC01A48DA80F49
:10021000B92FB11DA35ABF4F2C91848D90E0019648
:100220008F739927848FA689B7892C93A089B18968
:100230008C91837080648C93938D848D981306C009
:100240000288F389E02D80818F7D80830895EF926D
:10025000FF920F931F93CF93DF93EC0181E0888F80
:100260009B8D8C8D98131AC0E889F989808185FF50
:1002700015C09FB7F894EE89FF896083E889F989F2
:1002800080818370806480839FBF81E090E0DF91F4
:10029000CF911F910F91FF90EF900895F62E0B8D47
:1002A00010E00F5F1F4F0F731127E02E8C8D8E1102
:1002B0000CC00FB607FCFACFE889F989808185FF69
:1002C000F5CFCE010E940501F1CFEB8DEC0FFD2F94
:1002D000F11DE35AFF4FF0829FB7F8940B8FEA8924
:1002E000FB8980818062CFCFCF93DF93EC01888D33
:1002F0008823B9F0AA89BB89E889F9898C9185FDA1
:1003000003C0808186FD0DC00FB607FCF7CF8C912E
:1003100085FFF2CF808185FFEDCFCE010E940501E0
:10032000E9CFDF91CF91089590E0FC01E859FF4FAC
:100330002491FC01EC55FF4F3491FC01E057FF4F35
:10034000E491EE23C9F0222339F0233001F1A8F41F
:10035000213019F1223029F1F0E0EE0FFF1FE458AF
:10036000FF4FA591B4918FB7F894EC91611126C01D
:1003700030953E233C938FBF08952730A9F0283055
:10038000C9F0243049F7809180008F7D03C08091AF
:1003900080008F7780938000DFCF84B58F7784BD16
:1003A000DBCF84B58F7DFBCF8091B0008F778093BA
:1003B000B000D2CF8091B0008F7DF9CF3E2BDACF45
:1003C0003FB7F8948091340190913501A0913601A6
:1003D000B091370126B5A89B05C02F3F19F00196B3
:1003E000A11DB11D3FBFBA2FA92F982F8827BC018F
:1003F000CD01620F711D811D911D42E0660F771FB7
:10040000881F991F4A95D1F708958F929F92AF92B6
:10041000BF920F931F93CF93DF93CDB7DEB7A19712
:100420000FB6F894DEBF0FBECDBF19A2423008F45C
:100430004AE08E010F5D1F4F842E912CB12CA12C10
:10044000A50194010E944506E62FB901CA01EA30D0
:1004500044F5E05DD801EE938D01232B242B252B51
:1004600079F790E080E0109769F0FD01019000209D
:10047000E9F73197AF014A1B5B0BBD018CE391E0BB
:100480000E948700A1960FB6F894DEBF0FBECDBFC5
:10049000DF91CF911F910F91BF90AF909F908F9060
:1004A0000895E95CD7CF1F920F920FB60F921124D7
:1004B0002F933F934F935F936F937F938F939F936C
:1004C000AF93BF93EF93FF938CE391E00E940501FC
:1004D000FF91EF91BF91AF919F918F917F916F911C
:1004E0005F914F913F912F910F900FBE0F901F90F2
:1004F00018951F920F920FB60F9211242F938F937E
:100500009F93EF93FF93E0914C01F0914D01808117
:10051000E0915201F091530182FD1BC090818091C6
:1005200055018F5F8F7320915601821741F0E09142
:100530005501F0E0E45CFE4F958F80935501FF91EB
:10054000EF919F918F912F910F900FBE0F901F9061
:1005500018958081F4CF1F920F920FB60F9211243D
:100560002F933F938F939F93AF93BF9380913001CD
:1005700090913101A0913201B091330130912F015E
:1005800023E0230F2D3758F50196A11DB11D2093AF
:100590002F018093300190933101A0933201B093E9
:1005A00033018091340190913501A0913601B091D1
:1005B00037010196A11DB11D80933401909335013F
:1005C000A0933601B0933701BF91AF919F918F9166
:1005D0003F912F910F900FBE0F901F90189526E816
:1005E000230F0296A11DB11DD2CF1F920F920FB6FD
:1005F0000F9211242F933F934F935F936F937F93A9
:100600008F939F93AF93BF93CF93DF93EF93FF931A
:1006100080912E01C091FD01D0E087FF24C010928F
:1006200085001092840080912E018F5F80932E01AF
:1006300080912E01082E000C990B8C179D0724F435
:1006400080912E018C30C4F18091840090918500BE
:10065000049680349C4908F47AC08091840090917B
:100660008500049676C080912E01082E000C990B0F
:100670008C179D07C4F6E0912E018E2FEE0F990B7B
:10068000FC01EE0FFF1FE80FF91FE752FE4F8081BC
:1006900086FFC9CFE0912E018E2FEE0F990BFC0142
:1006A000EE0FFF1FE80FF91FE752FE4F808160E059
:1006B0008F730E949401B7CF209184003091850000
:1006C000E0912E018E2FEE0F990BFC01EE0FFF1F14
:1006D000E80FF91FE752FE4F81819281820F931F2D
:1006E0009093890080938800E0912E018E2FEE0F69
:1006F000990BFC01EE0FFF1FE80FF91FE752FE4FA9
:10070000808186FF11C0E0912E018E2FEE0F990B94
:10071000FC01EE0FFF1FE80FF91FE752FE4F80812B
:1007200061E08F730E949401FF91EF91DF91CF916F
:10073000BF91AF919F918F917F916F915F914F91F9
:100740003F912F910F900FBE0F901F90189580E44E
:100750009CE990938900809388008FEF80932E010D
:10076000E3CF10923F0110923E0188EE93E0A0E0AB
:10077000B0E08093400190934101A0934201B09377
:10078000430184E091E090933D0180933C0185EC2E
:1007900090E0909349018093480184EC90E090931D
:1007A0004B0180934A0180EC90E090934D0180933F
:1007B0004C0181EC90E090934F0180934E0182ECCC
:1007C00090E0909351018093500186EC90E09093DB
:1007D00053018093520110925501109256011092CC
:1007E0005701109258018091FD018C3098F491E0EE
:1007F000980F9093FD018093FE0190E0FC01EE0FB5
:10080000FF1FE80FF91FE752FE4F88EB9BE0928332
:10081000818308958FEF8093FE010895789484B5C5
:10082000826084BD84B5816084BD85B5826085BDEC
:1008300085B5816085BD80916E00816080936E007A
:10084000109281008091810082608093810080916C
:10085000810081608093810080918000816080931D
:1008600080008091B10084608093B1008091B000DD
:1008700081608093B00080917A00846080937A00D8
:1008800080917A00826080937A0080917A00816002
:1008900080937A0080917A00806880937A00109229
:1008A000C1008091FE018C3008F068C0EDEAF0E0F4
:1008B0002491E9E9F0E08491882399F090E0880F91
:1008C000991FFC01EA57FF4FA591B491FC01E45830
:1008D000FF4F859194918FB7F894EC91E22BEC93B4
:1008E0008FBF8091FE01282F30E0F901EE0FFF1F2E
:1008F000E20FF31FE752FE4F9081907C9960908346
:100900001092FF01109200022CE0622F0E947606E6
:10091000829FB001112430E020E0AB01420F531F51
:10092000FA01EE0FFF1FE40FF51FE752FE4F908113
:1009300096FD16C02F5F3F4F2C30310571F78111A6
:100940000FC01092800082E0809381001092850099
:1009500010928400B19A80916F00826080936F0042
:10096000E091FE018E2F90E0FC01EE0FFF1FE80FDB
:10097000F91FE752FE4F808180648083E0914C0133
:10098000F0914D0182E08083E0914801F0914901AE
:100990001082E0914A01F0914B018FEC808310921C
:1009A0005401E0915001F091510186E08083E09183
:1009B0004E01F0914F01808180618083E0914E0172
:1009C000F0914F01808188608083E0914E01F09129
:1009D0004F01808180688083E0914E01F0914F014A
:1009E00080818F7D808308E810E0C8E5D2E024EBA9
:1009F000422E512C612C712C30E0232E30E0332E0E
:100A000020E420937C0080917A00806480937A00B7
:100A100080917A0086FDFCCF9091780080917900DA
:100A200089279827892790933B0180933A014BE0CF
:100A300050E062E171E08CE391E00E948700C09099
:100A40003A01D0903B010D2C000CEE08FF084AE063
:100A5000C701B601F7FE0DC06DE28CE391E00E9484
:100A6000270166277727CB016C197D098E099F091D
:100A70004AE00E940502A0913A01B0913B0123EBAC
:100A800030E00E9482062FEF33E040E050E00E9409
:100A9000130630933901209338014EE050E06EE1A7
:100AA00071E08CE391E00E948700C0903801D09003
:100AB00039010D2C000CEE08FF084AE0C701B60111
:100AC000F7FE0DC06DE28CE391E00E9427016627DE
:100AD0007727CB016C197D098E099F094AE00E9496
:100AE0000502A0913801B0913901A03232E0B3077C
:100AF000B4F58091FF016801C81AD10887FDD3942D
:100B0000CC0CDD1CCC0CDD1C0D2C000CEE08FF0801
:100B1000809100029E01281B310987FD3395220F29
:100B2000331F220F331F032E000C440B550B2C19BF
:100B30003D094E095F09A53BB10514F0A4EBB0E0F7
:100B4000B7FF02C0B0E0A0E00E943D06A301920101
:100B50000E941306C20ED31EE41EF51ED60140915C
:100B6000FE014C3080F58091FF019801281B31096E
:100B700087FD3395C901880F991F880F991FA81702
:100B8000B90784F0809100029E01281B310987FD7E
:100B90003395C901880F991F880F991FA817B907A6
:100BA0000CF4CD010297880F991F6FB7F89450E0AD
:100BB0009A01220F331F240F351FF901E752FE4F10
:100BC000928381836FBF0E94E0014B015C018FE043
:100BD000C82ED12CE12CF12C0E94E0016819790972
:100BE0008A099B09683E734081059105A8F331E0AD
:100BF000C31AD108E108F10888EE880E83E0981E38
:100C0000A11CB11CC114D104E104F10429F7211481
:100C1000310409F4F5CE0E94F100882309F4F0CEE6
:100C20000E940000EDCE052E97FB1EF400940E945A
:100C30002A0657FD07D00E94450607FC03D04EF454
:100C40000C942A0650954095309521953F4F4F4F73
:100C50005F4F089590958095709561957F4F8F4F68
:100C60009F4F08950E946706A59F900DB49F900D19
:100C7000A49F800D911D11240895B7FF0C94320696
:100C80000E943206821B930B0895A1E21A2EAA1B22
:100C9000BB1BFD010DC0AA1FBB1FEE1FFF1FA2172C
:100CA000B307E407F50720F0A21BB30BE40BF50B29
:100CB000661F771F881F991F1A9469F760957095B2
:100CC000809590959B01AC01BD01CF010895A29F35
:100CD000B001B39FC001A39F700D811D1124911D10
:100CE000B29F700D811D1124911D0895991B79E00B
:100CF00004C0991F961708F0961B881F7A95C9F7AC
:100D0000809508950E946706B7FF0895821B930B94
:100D10000895EE0FFF1F0590F491E02D0994F894CB
:020D2000FFCF03
:100D22000000000027018700B4007401E500C30041
:100D3200D700506F742076616C75653A20000A41C5
:0E0D42006E676C652076616C75653A20000066
:00000001FF
